{
  "address": "0xc6Ef3D172E06Cd3489a866a2155Cf9BE24Bd47fF",
  "abi": [
    {
      "inputs": [],
      "stateMutability": "nonpayable",
      "type": "constructor"
    },
    {
      "anonymous": false,
      "inputs": [
        {
          "indexed": false,
          "internalType": "uint256",
          "name": "value",
          "type": "uint256"
        }
      ],
      "name": "ESum",
      "type": "event"
    },
    {
      "inputs": [],
      "name": "print",
      "outputs": [],
      "stateMutability": "nonpayable",
      "type": "function"
    },
    {
      "inputs": [
        {
          "internalType": "address",
          "name": "contractAddress",
          "type": "address"
        }
      ],
      "name": "setContractB",
      "outputs": [],
      "stateMutability": "nonpayable",
      "type": "function"
    },
    {
      "inputs": [],
      "name": "x",
      "outputs": [
        {
          "internalType": "uint256",
          "name": "",
          "type": "uint256"
        }
      ],
      "stateMutability": "view",
      "type": "function"
    }
  ],
  "transactionHash": "0xde691b99406a7c670cb9110dd25a1754675cee19af3219ab3ee97335103dc021",
  "args": [],
  "solcInputHash": "216753a8c13ee19c552ff59f06cf1299",
  "bytecode": "0x608060405234801561001057600080fd5b5060016000819055506104e8806100286000396000f3fe608060405234801561001057600080fd5b50600436106100415760003560e01c80630c55699c1461004657806313bdfacd14610064578063224bc07f1461006e575b600080fd5b61004e61008a565b60405161005b9190610314565b60405180910390f35b61006c610090565b005b61008860048036038101906100839190610270565b610192565b005b60005481565b6000600160009054906101000a900473ffffffffffffffffffffffffffffffffffffffff1673ffffffffffffffffffffffffffffffffffffffff166357de26a46040518163ffffffff1660e01b8152600401602060405180830381600087803b1580156100fc57600080fd5b505af1158015610110573d6000803e3d6000fd5b505050506040513d601f19601f820116820180604052508101906101349190610299565b905060026000546101459190610396565b6000819055507fe41087e1745ad76cd5d7ec40ca9782ab58e57d66c73d46419fbc8cd9119f4df18160005461017a9190610340565b6040516101879190610314565b60405180910390a150565b600073ffffffffffffffffffffffffffffffffffffffff168173ffffffffffffffffffffffffffffffffffffffff161415610202576040517f08c379a00000000000000000000000000000000000000000000000000000000081526004016101f9906102f4565b60405180910390fd5b80600160006101000a81548173ffffffffffffffffffffffffffffffffffffffff021916908373ffffffffffffffffffffffffffffffffffffffff16021790555050565b60008135905061025581610484565b92915050565b60008151905061026a8161049b565b92915050565b60006020828403121561028257600080fd5b600061029084828501610246565b91505092915050565b6000602082840312156102ab57600080fd5b60006102b98482850161025b565b91505092915050565b60006102cf60208361032f565b91506102da8261045b565b602082019050919050565b6102ee81610422565b82525050565b6000602082019050818103600083015261030d816102c2565b9050919050565b600060208201905061032960008301846102e5565b92915050565b600082825260208201905092915050565b600061034b82610422565b915061035683610422565b9250827fffffffffffffffffffffffffffffffffffffffffffffffffffffffffffffffff0382111561038b5761038a61042c565b5b828201905092915050565b60006103a182610422565b91506103ac83610422565b9250817fffffffffffffffffffffffffffffffffffffffffffffffffffffffffffffffff04831182151516156103e5576103e461042c565b5b828202905092915050565b60006103fb82610402565b9050919050565b600073ffffffffffffffffffffffffffffffffffffffff82169050919050565b6000819050919050565b7f4e487b7100000000000000000000000000000000000000000000000000000000600052601160045260246000fd5b7f43616e6e6f7420696e697469616c697a65207769746820302061646472657373600082015250565b61048d816103f0565b811461049857600080fd5b50565b6104a481610422565b81146104af57600080fd5b5056fea2646970667358221220ebbc5a5fd0e60ee53e21f42e5364da260fb6be4f1a51ee83fe5e96c6e8c4a99164736f6c63430008030033",
  "devdoc": {
    "kind": "dev",
    "methods": {},
    "version": 1
  },
  "userdoc": {
    "kind": "user",
    "methods": {},
    "version": 1
  },
  "storageLayout": {
    "storage": [
      {
        "astId": 4,
        "contract": "contracts/ContractA.sol:A",
        "label": "x",
        "offset": 0,
        "slot": "0",
        "type": "t_uint256"
      },
      {
        "astId": 7,
        "contract": "contracts/ContractA.sol:A",
        "label": "_contractB",
        "offset": 0,
        "slot": "1",
        "type": "t_contract(B)126"
      }
    ],
    "types": {
      "t_contract(B)126": {
        "encoding": "inplace",
        "label": "contract B",
        "numberOfBytes": "20"
      },
      "t_uint256": {
        "encoding": "inplace",
        "label": "uint256",
        "numberOfBytes": "32"
      }
    }
  }
}