{
  "address": "0x90568EbE3FDFD91AD407d8d142E0060931c9d247",
  "abi": [
    {
      "inputs": [],
      "stateMutability": "nonpayable",
      "type": "constructor"
    },
    {
      "inputs": [],
      "name": "contractA",
      "outputs": [
        {
          "internalType": "address",
          "name": "",
          "type": "address"
        }
      ],
      "stateMutability": "view",
      "type": "function"
    },
    {
      "inputs": [],
      "name": "read",
      "outputs": [
        {
          "internalType": "uint256",
          "name": "",
          "type": "uint256"
        }
      ],
      "stateMutability": "nonpayable",
      "type": "function"
    },
    {
      "inputs": [
        {
          "internalType": "address",
          "name": "contractAddress",
          "type": "address"
        }
      ],
      "name": "setContractA",
      "outputs": [],
      "stateMutability": "nonpayable",
      "type": "function"
    },
    {
      "inputs": [],
      "name": "y",
      "outputs": [
        {
          "internalType": "uint256",
          "name": "",
          "type": "uint256"
        }
      ],
      "stateMutability": "view",
      "type": "function"
    }
  ],
  "transactionHash": "0xd0d78369caf8dedd34b9eab4c43dfe5bae25705f00716ac665426f0662a9408f",
  "args": [],
  "solcInputHash": "216753a8c13ee19c552ff59f06cf1299",
  "bytecode": "0x608060405234801561001057600080fd5b506001600081905550610441806100286000396000f3fe608060405234801561001057600080fd5b506004361061004c5760003560e01c806357de26a4146100515780635c0b97e61461006f578063a56dfe4a1461008d578063dfd11885146100ab575b600080fd5b6100596100c7565b60405161006691906102da565b60405180910390f35b610077610140565b604051610084919061029f565b60405180910390f35b610095610166565b6040516100a291906102da565b60405180910390f35b6100c560048036038101906100c09190610235565b61016c565b005b6000600160009054906101000a900473ffffffffffffffffffffffffffffffffffffffff1673ffffffffffffffffffffffffffffffffffffffff163373ffffffffffffffffffffffffffffffffffffffff161461012357600080fd5b60036000546101329190610306565b600081905550600054905090565b600160009054906101000a900473ffffffffffffffffffffffffffffffffffffffff1681565b60005481565b600073ffffffffffffffffffffffffffffffffffffffff168173ffffffffffffffffffffffffffffffffffffffff1614156101dc576040517f08c379a00000000000000000000000000000000000000000000000000000000081526004016101d3906102ba565b60405180910390fd5b80600160006101000a81548173ffffffffffffffffffffffffffffffffffffffff021916908373ffffffffffffffffffffffffffffffffffffffff16021790555050565b60008135905061022f816103f4565b92915050565b60006020828403121561024757600080fd5b600061025584828501610220565b91505092915050565b61026781610360565b82525050565b600061027a6020836102f5565b9150610285826103cb565b602082019050919050565b61029981610392565b82525050565b60006020820190506102b4600083018461025e565b92915050565b600060208201905081810360008301526102d38161026d565b9050919050565b60006020820190506102ef6000830184610290565b92915050565b600082825260208201905092915050565b600061031182610392565b915061031c83610392565b9250817fffffffffffffffffffffffffffffffffffffffffffffffffffffffffffffffff04831182151516156103555761035461039c565b5b828202905092915050565b600061036b82610372565b9050919050565b600073ffffffffffffffffffffffffffffffffffffffff82169050919050565b6000819050919050565b7f4e487b7100000000000000000000000000000000000000000000000000000000600052601160045260246000fd5b7f43616e6e6f7420696e697469616c697a65207769746820302061646472657373600082015250565b6103fd81610360565b811461040857600080fd5b5056fea26469706673582212201c16f7ef8b424d7c7de51858f4ef01bc914e7d74e3c896273ed35e3560f18fbf64736f6c63430008030033",
  "devdoc": {
    "kind": "dev",
    "methods": {},
    "version": 1
  },
  "userdoc": {
    "kind": "user",
    "methods": {},
    "version": 1
  },
  "storageLayout": {
    "storage": [
      {
        "astId": 68,
        "contract": "contracts/ContractB.sol:B",
        "label": "y",
        "offset": 0,
        "slot": "0",
        "type": "t_uint256"
      },
      {
        "astId": 70,
        "contract": "contracts/ContractB.sol:B",
        "label": "contractA",
        "offset": 0,
        "slot": "1",
        "type": "t_address"
      }
    ],
    "types": {
      "t_address": {
        "encoding": "inplace",
        "label": "address",
        "numberOfBytes": "20"
      },
      "t_uint256": {
        "encoding": "inplace",
        "label": "uint256",
        "numberOfBytes": "32"
      }
    }
  }
}